:10000000002000200708000001080000050800008B
:1000100003080000030800000308000003080000B4
:1000200003080000030800000308000003080000A4
:100030000308000003080000030800000308000094
:10004000FFFFFFFFFFFFFFFFFFFFFFFFFFFFFFFFC0
:10005000FFFFFFFFFFFFFFFFFFFFFFFFFFFFFFFFB0
:10006000FFFFFFFFFFFFFFFFFFFFFFFFFFFFFFFFA0
:10007000FFFFFFFFFFFFFFFFFFFFFFFFFFFFFFFF90
:10008000FFFFFFFFFFFFFFFFFFFFFFFFFFFFFFFF80
:10009000FFFFFFFFFFFFFFFFFFFFFFFFFFFFFFFF70
:1000A000FFFFFFFFFFFFFFFFFFFFFFFFFFFFFFFF60
:1000B000FFFFFFFFFFFFFFFFFFFFFFFFFFFFFFFF50
:1000C000FFFFFFFFFFFFFFFFFFFFFFFFFFFFFFFF40
:1000D000FFFFFFFFFFFFFFFFFFFFFFFFFFFFFFFF30
:1000E000FFFFFFFFFFFFFFFFFFFFFFFFFFFFFFFF20
:1000F000FFFFFFFFFFFFFFFFFFFFFFFFFFFFFFFF10
:10010000FFFFFFFFFFFFFFFFFFFFFFFFFFFFFFFFFF
:10011000FFFFFFFFFFFFFFFFFFFFFFFFFFFFFFFFEF
:10012000FFFFFFFFFFFFFFFFFFFFFFFFFFFFFFFFDF
:10013000FFFFFFFFFFFFFFFFFFFFFFFFFFFFFFFFCF
:10014000FFFFFFFFFFFFFFFFFFFFFFFFFFFFFFFFBF
:10015000FFFFFFFFFFFFFFFFFFFFFFFFFFFFFFFFAF
:10016000FFFFFFFFFFFFFFFFFFFFFFFFFFFFFFFF9F
:10017000FFFFFFFFFFFFFFFFFFFFFFFFFFFFFFFF8F
:10018000FFFFFFFFFFFFFFFFFFFFFFFFFFFFFFFF7F
:1001900003329CA703000000FFFFFFFFFFFFFFFFEC
:1001A000FFFFFFFFFFFFFFFFFFFFFFFFFFFFFFFF5F
:1001B000FFFFFFFFFFFFFFFFFFFFFFFFFFFFFFFF4F
:1001C000FFFFFFFFFFFFFFFFFFFFFFFFFFFFFFFF3F
:1001D000FFFFFFFFFFFFFFFFFFFFFFFFFFFFFFFF2F
:10080000FEE7FEE7FEE780B5C046C046C046C046EC
:1008100000F0B4FBFEE780B5C0B2002812D0002281
:100820000121DFF8DC0500F0B6FB01220121DFF831
:10083000D00500F0D0FB01220121DFF8C40500F053
:10084000C2FB11E000220121DFF8B40500F0A3FB98
:1008500000220121DFF8A80500F0BDFB00220121E4
:10086000DFF89C0500F0AFFB01BD80B500F008F893
:10087000002802D000F001F901E000F09FF801BD6E
:1008800010B500240120FFF7C6FFDFF8740500F063
:10089000AAFBC00701D4012408E000F00DF82D28C0
:1008A00003D000F040F8462800D101240020FFF7D3
:1008B000B2FF2000C0B210BD0120FFE7C0B2002887
:1008C00026D000204FF6FF71DFF838251160DFF8E1
:1008D0003815DFF8382511605FF4FC31DFF830257A
:1008E0001160DFF83015DFF8302511600321DFF8E3
:1008F0002C251160DFF80C1509684A07FAD509099B
:1009000011F003010029D9D00229D7D00120D5E761
:10091000DFF80C050068DFF80C15884201D058207C
:1009200000E02D20704710B446200122DFF8F814B3
:100930000CE001220023DFF8D44423600023DFF819
:10094000D04423600023DFF8D0442360D2B2002AD1
:1009500031D00022DFF8D4344C69A342F6D24B697F
:10096000402BF3D24FF6FF73DFF898442360DFF893
:100970009834DFF8984423604B69DB02DFF8904439
:100980002360DFF89034DFF8904423600323DFF81E
:100990008C442360DFF86C341B685C07FAD51B09B4
:1009A00013F00303002B02D0022B02D0C1E750202A
:1009B000C0E74620BEE7C0B210BC704780B5DFF884
:1009C0004804DFF86C140860016881F30888406807
:1009D000804701BD10B4002001210022012347E01F
:1009E0000322DFF850341A800222DFF84C341A80D8
:1009F00040F21132DFF844341A80DFF844241288C0
:100A00000E231A4208D00023DFF83044238040F23E
:100A10001133DFF828442380D207EED5DFF82024F5
:100A2000128892B2120992B2DFF818341B889BB276
:100A300052EA0332D2100023DFF800442380130966
:100A4000002B15D001201309DFF8FC432380D301CC
:100A50001209B3FBF2F2B2F5006252EAC12252F47B
:100A60000042DFF8E8331A800222DFF8E4331A800C
:100A7000C0B20028B4D010BC704780B5DFF8D403F2
:100A80000068002803D1C920DFF8CC1308800122B8
:100A90004FF48061DFF8C40300F07DFA01224FF4C7
:100AA0000061DFF8B80300F076FAFFF793FF00F07B
:100AB00038F900F0FBF901BDDFF8A4030088C00796
:100AC000FAD5DFF8A0030088C0B27047DFF89013B2
:100AD00009888906FAD5C0B2DFF888130880704704
:100AE00010B504002000C0B2FFF7F0FF200AC0B22A
:100AF000FFF7ECFF10BD10B504002000C0B2FFF7F7
:100B0000E5FF200AC0B2FFF7E1FF200CC0B2FFF7FB
:100B1000DDFF200EC0B2FFF7D9FF10BD0020D24983
:100B200008605FF0FF30B74908600320CF490860D4
:100B300070473421B34A1160B8490860B148006871
:100B40004007FBD5AF48006810F0300F01D10120FD
:100B500000E00020C0B2704780B5FFF7ADFE2D2841
:100B600001D1012000E00020C0B202BD38B5040070
:100B70000D00A548844203D2A34C01E014F50064A3
:100B8000A5420BD3A348A4490860A04804600620EE
:100B9000FFF7CFFF0028F1D1002000E0012032BD97
:100BA00080B55FF4FC319848FFF7E0FF02BD80B5E7
:100BB0004FF4006202FB0101491EFFF7D7FF02BD9F
:100BC00080B5010001209048814201D2012008E057
:100BD000A7480160A7480260A74803600420FFF708
:100BE000A8FFC0B2002800D1FEE7C0B202BD2DE9C7
:100BF000F04100200400FFF75FFFE4B2072C02D0B1
:100C0000C0B20E28F6D1FFF757FF0700FFB2052F3D
:100C100001DA002067E0FFF74FFF0500EE1900241E
:100C20005FF0000807E0FFF747FF8619C0B250EAFF
:100C3000042418F10108B8F1040FF4D3FFB27F1FA8
:100C40005FF0000807E0FFF737FF8C4908F8010064
:100C5000861918F10108B845F5D3FFF72DFF86195D
:100C6000F6B2002E01D000203DE0EDB2412D0BD1B7
:100C7000002F09D1FFF770FF002802D1FFF790FF86
:100C800000E00120C0B22EE0EDB2452D07D1012FCA
:100C900005D17A4801782000FFF789FF23E0EDB203
:100CA000572D1FD10820B4FBF0F101FB10410029A2
:100CB00018D10820B7FBF0F101FB1071002911D108
:100CC000002500E00835BD420AD26C482818D0E95A
:100CD00000232819FFF774FF0028F3D1002002E059
:100CE000012000E00020BDE8F08110B5FFF7E4FE30
:100CF0000D28FBD1002404E06148205CFFF7E6FEEC
:100D0000641C182CF8D3FFF709FF03E00720C0B2DA
:100D1000FFF7DCFEFFF76BFFC0B20028F6D006201D
:100D2000F5E738B5574C574C2068FFF7E4FE241D13
:100D30002068FFF7E0FE241D2068C0B2FFF7C6FE62
:100D4000241D2020FFF7C2FE2020FFF7BFFE202039
:100D5000FFF7BCFE2020FFF7B9FE2020FFF7B6FE0C
:100D60002020FFF7B3FE484C207810F00F0000F071
:100D700093F8241DC0B2FFF7A9FE444C206880B24E
:100D8000FFF7AEFE241DFFF797FDC0B2FFF79EFEF2
:100D9000FFF7C9FDC0B2FFF799FE4FF4CC7420688D
:100DA0003B49884203D12D20FFF790FE02E05720F7
:100DB000FFF78CFE2D20FFF789FE2020FFF786FE2F
:100DC000344C002511E0207810F00F0000F064F89A
:100DD000C0B2FFF77BFE2078C0B2000900F05CF8DB
:100DE000C0B2FFF773FE641C6D1C102DEBD30A20FC
:100DF000FFF76CFE0D20FFF769FE31BD000000001B
:100E000040000240008001400020000018800140A6
:100E10001C80014065756C6720800140088001409E
:100E20002C80014003B71FCF802100000300000089
:100E300008ED00E00C5000402C50004040500040B5
:100E4000445000404850004028500040245000408A
:100E5000305000400870004008090C40000002407B
:100E60001450004000500040048001404480014084
:100E70000C800140108001401480014000000020DF
:100E8000641000007C1000002420004030070400A3
:100E900072576F4E700704000100C0B20A2801DAD1
:100EA000303100E037310800C0B270472DE9F04121
:100EB000FFF702FE040002E0FFF7FEFD0400E4B2CB
:100EC000072CF9D1FFF7F8FD0400E4B20E2CF6D19F
:100ED000FFF7F2FD05002E00EDB2052DEFDBFFF769
:100EE000EBFD040065192700FFF7E6FD0400651916
:100EF000E4B25FEA0468FFF7DFFD04006519E4B2BD
:100F000058EA0448FFF7D8FD04006519E4B258EA2E
:100F10000428FFF7D1FD04006519E4B254EA08087B
:100F2000761FF6B2002E07D0FFB2572F04D0C6E7C7
:100F3000FFF7C2FD040065193000461EC0B200284C
:100F4000F6D1FFF7B9FD04006519EDB2002D01D00F
:100F5000072500E006252800C0B2FFF7B7FDEDB277
:100F6000062DACD1FFB2452F02D1FFF7DAFEA6E77E
:100F7000FFB2522FA3D1FFF7B8FEA0E700F035F87B
:100F8000002801D000F044F80020C046C046FFF71A
:100F90006CFC00F051F8F0B4002401250368002433
:100FA0000BE0294207D003266700BE40B34366002A
:100FB00012FA06F633436D00641C102CF1D3036063
:100FC0000120F0BC704703898B43002A00D00B43FB
:100FD00003810120704783898B43002A00D00B4393
:100FE000838101207047008A70470120704750F8C4
:100FF000041B61B150F8042BD30744BFA9F10103CE
:101000009A180023091F42F8043BFAD1EFE7704712
:1010100010B5074979441831064C7C44163404E075
:101020000A68081D511888470146A142F8D110BD31
:10103000240000003000000000F000B807463846E9
:1010400000F002F8FBE700002021090326311820F8
:10105000ABBEF9E79BFFFFFFFC0000000000002093
:1010600000000000414475434D3330327820202089
:10107000202020303030202020200A0D41445543CC
:101080004D33353520202020C046C046C046C046DE
:10109000FFF774FFFFFFFFFFFFFFFFFFFFFFFFFFF3
:1010A000FFFFFFFFFFFFFFFFFFFFFFFFFFFFFFFF50
:1010B000FFFFFFFFFFFFFFFFFFFFFFFFFFFFFFFF40
:1010C000FFFFFFFFFFFFFFFFFFFFFFFFFFFFFFFF30
:1010D000FFFFFFFFFFFFFFFFFFFFFFFFFFFFFFFF20
:101FF000FFFFFFFFFFFFFFFFFFFFFFFFDF69AC0DEC
:10200000002000202DA2000023440000CB46000049
:102010001F470000D34900001B4C0000EBA4000048
:10202000EBA40000EBA40000EBA40000574E00005E
:10203000FB510000EBA40000DB610000FF61000029
:102040003F6200009F640000C36400003766000028
:102050002F850000AF660000DB680000EB69000020
:102060003784000093840000BF880000B54F000053
:10207000D7910000CB920000DF4F00007794000062
:10208000C3A20000F7A200002FA30000A3A4000039
:10209000ADA40000AFA40000EBA40000EBA400007E
:1020A000B1A40000B3A40000EBA40000EBA4000066
:1020B000B5A40000B7A40000B9A40000BBA40000B0
:1020C000BDA40000BFA40000C1A40000C3A4000080
:1020D000EBA40000EBA40000C5A40000C7A400000E
:1020E0008F4F0000EBA40000EBA40000C9A4000087
:1020F000CBA40000EBA40000CDA40000CFA40000FE
:102100005F4F0000D1A40000D3A40000D5A40000BC
:10211000D7A40000D9A40000DBA40000DDA40000C7
:10212000DFA40000E1A400000000000000000000A7
:10213000E3A40000E5A40000E7A40000E9A4000077
:10214000FFFFFFFFFFFFFFFFFFFFFFFFFFFFFFFF9F
:10215000FFFFFFFFFFFFFFFFFFFFFFFFFFFFFFFF8F
:10216000FFFFFFFFFFFFFFFFFFFFFFFFFFFFFFFF7F
:10217000FFFFFFFFFFFFFFFFFFFFFFFFFFFFFFFF6F
:10218000FFFFFFFFFFFFFFFFFFFFFFFFFFFFFFFF5F
:1021900003329CA704000000FFFFFFFFFFFFFFFFCB
:1021A000FFFFFFFFFFFFFFFFFFFFFFFFFFFFFFFF3F
:1021B000FFFFFFFFFFFFFFFFFFFFFFFFFFFFFFFF2F
:1021C000FFFFFFFFFFFFFFFFFFFFFFFFFFFFFFFF1F
:1021D000FFFFFFFFFFFFFFFFFFFFFFFFFFFFFFFF0F
:1027F000FFFFFFFFFFFFFFFFFFFFFFFF05BF0061C0
:10280000BFF34F8FDFF8401CDFF8CC0D0A6802F4ED
:10281000E06202430A60BFF34F8F00BFFDE7000094
:10282000044694B000F02AFD002001F0ABF800212E
:10283000ADF806104FF4C872DFF8A01D069107919D
:102840000B920121ADF82A20ADF80410012001F00F
:10285000C9F80121002CADF80C00ADF8101026D1FC
:1028600001F0B0F800F013FB01F08FF800F00AFB64
:1028700001F08BF800F048F801F087F8079000BFEE
:1028800019A001F03DFA01F080F8ADF82A0000F03F
:10289000B8F901F07AF800F0B8F901F076F800F034
:1028A000BAF900F0FAFA01F070F8ADF8100001F092
:1028B000CBFA02900EA001F023FABDF80600BDF895
:1028C0000C10C0B201F0D0F9684600F027F8684655
:1028D00000F043F8684600F06EF801F080FC6846AE
:1028E00000F0F1F805A085E15B3A5352495D000024
:1028F0005B53544152543A43565D00005B454E448D
:102900003A43565D000000000B9000BF01A001F0AB
:10291000F7B900005B3A4556495D000038B50446FA
:10292000A069E16A8142C8BF0146E0698842C8BF28
:10293000084601F075FCE369A26940F6FC052D1A12
:10294000E06AE582EB1AA382A91A281A208561821F
:1029500089B2E388DBB2A8B2C6E270B50446E58A64
:10296000608A0C2101F096FB06460621284601F0FC
:1029700091FB014600F09EF801F06AFC01F07BFC3F
:1029800000250CE001F07BFC01F03EFD01F04AFD6A
:1029900000F0E1FA00F051FD01F068FD0546A08865
:1029A00001F032FD0146284601F094FDEAD3BDE86E
:1029B000704001F060BCF8B504460125608DB0F5AB
:1029C0007A7FA8BF022501F02FFC608A0C2101F05C
:1029D00061FB00F08DFB00F071F800F08EFB2084AD
:1029E0000020E08101F030FAA06000F022FD00201C
:1029F000E084218D608A668C884237D20FE000F037
:102A000058F800F013FD01F03DFCF00705D400F08C
:102A100079FB00F025FD00F044F8AE19B6B2278E20
:102A2000BE42ECDBA08CB84237DA00F05CFB00F071
:102A3000FDFC01F027FCF80705D400F063FB00F073
:102A40000FFD00F02EF87F1BBFB2EBE700F031F86E
:102A500000F0ECFC01F016FCF00705D400F052FB8E
:102A600000F0FEFC00F01DF8761BB6B2278EB742D0
:102A7000ECDB0FE000F037FB00F0D8FC01F002FCCB
:102A8000F80705D400F03EFB00F0EAFC00F009F87E
:102A9000EF19BFB2A08C8742ECDB218CE0883A466C
:102AA00067E1A168E28921F81200E089401CE08119
:102AB0007047218CE088324601F042BD20860C210F
:102AC000A08A01F0E7BA2DE9FE430646F369F26AEF
:102AD000B1690FF654500FF688540FF6785501F08F
:102AE0000FF9B08900F0C4FF00F0C2FF00F077FBDF
:102AF00000273BE0B06800EB4702538830F817200E
:102B0000204601F0FDF830E0308AF18C0128F1D147
:102B1000084601F079FC01F0DCF98046B06830F835
:102B2000170001F071FC01F0D4F90146404601F0B4
:102B300085FD8046B08900F09BFF00F099FF81463B
:102B4000B06800EB4701488801F05EFC494601F09F
:102B5000D3F901F067FCCDE90001404601F062FCC9
:102B600002460B46284601F0CBF8BF1CF08987428D
:102B7000CAD3BDE8FE432FE394B000F07FFB00F022
:102B800021FF00F084F900F000FF0690FFF7BDFE82
:102B900000F0FBFE00F065F900F0F7FE00F06CF9C4
:102BA00000F0F3FE00F062F900F0EFFE00F027F80D
:102BB00000F0EBFE00F029F800F0E7FE00F02BF843
:102BC00000F06BF900F057FB00F04CFB0FF6BC4037
:102BD00001F096F8684600F022F8684600F048F8E0
:102BE000684600F047F801F0FAFA684600F0E9F8A4
:102BF0000FF6A44001F084F8FFF702FE00BFADF825
:102C000032000FF6084001F07BB8ADF804000FF673
:102C1000044001F075B83038C0B200F0E3BE10B522
:102C20000446A169E0698842C8BF084601F0F8FA85
:102C3000014640F6FC00401AA18EA269E369A0EBB0
:102C40004100002A44BF002B4FF47A70C31AA382BC
:102C5000811AE082618289B2E388DBB280B201F03E
:102C60002FFA618AA28A411880186182A08210BD61
:102C700038B546E1F8B500F04BFA6084FFF71FFF66
:102C800000F03BFA20844CF25035A08E01F01EFD7E
:102C900000F023FA01F028FD0022E28120870321C1
:102CA000608E95FBF0F090FBF1F501F0CDF8A0609F
:102CB000ADB200F0BEFB608AA18A668C6D1F8842AF
:102CC00051D2A08CB04251DB208F801900F06BF8FC
:102CD00000F0C1FB014600F007FA00F0A7FB00F08E
:102CE0005FF800F00FFA00F0BBFB00F060F8301A5C
:102CF00000F05AF800F0AFFB014600F0F5F900F0E3
:102D000095FB00F04DF8E188102200F0B2FB00F0D6
:102D100038F88619B6B2D4E7208F301A00F043F89D
:102D200000F099FB014600F0DFF900F07FFB00F0B6
:102D300037F800F0E7F900F093FB00F038F880195D
:102D400000F032F800F087FB014600F0CDF900F00A
:102D50006DFB00F025F8E188102200F08AFB00F0FE
:102D600010F8361AB6B2A18C8E42D5DA218CE088E2
:102D7000324601F0E5FB00F059FB00F00BF8E0846F
:102D8000F1BDA168E28921F81200E089401CE081D0
:102D9000E08E7047E1881022C9B2022001F069B8C4
:102DA000284601F026BD0C2180B201F073B9A1685C
:102DB000E28921F812000C21E089401CE081208F7B
:102DC00070472DE9FC410546EA69A9690FF6D42050
:102DD0000FF6E0280FF67C2400F092FFAFE194B0EC
:102DE00000F04CFA00F0EEFD00F051F800F0CDFDDF
:102DF00000F048F800F0C9FDFFF786FD00F0C5FDC2
:102E000000F02FF800F0C1FD00F036F800F0BDFD35
:102E100000F02CF800F0B9FDFFF7F1FE00F0B5FD71
:102E2000FFF7F3FE00F0B1FDFFF7F5FE00F035F817
:102E300000F021FA00F016FA0FF6882000F060FF8B
:102E4000684600F030F8684600F05AF8684600F02E
:102E500088F801F0C4F9684600F05FF90FF67420B5
:102E6000C8E607900FF6042000F04ABFADF8360020
:102E70000FF60C2000F044BFADF834000FF6F4104C
:102E800000F03EBF06900FF67C1000F039BFADF8A1
:102E900006000FF6681000F033BFADF80C000FF617
:102EA000801000F02DBF38B50446A069E16A814268
:102EB000C8BF0146E0698842C8BF084601F0B0F9C2
:102EC00040F6FC01A28EE36AE569081AA0EB420015
:102ED000A269E082C31A2385811A6182451BE388B7
:102EE000A582DBB289B280B201F0EAF8618A228D54
:102EF000411861828218A18A22854018A08231BDC2
:102F000038B500F005F90546E08A00F0A6FA01465A
:102F1000E0882A4601F014FB01F09AF901F0ABF9C0
:102F200000250CE001F0ABF901F06EFA01F07AFA3D
:102F300000F011F800F081FA01F098FA0546A08837
:102F400001F062FA0146284601F0C4FAEAD3BDE86E
:102F5000314001F090B9DFF88826DFF8883601F0BB
:102F600063BC2DE9F04100F0D3F800F0C1F8FFF7A1
:102F7000A5FD00F0C2F82084A08E01F0A7FB00F0B0
:102F8000ACF801F0B1FB20874CF25030618EE58E39
:102F900090FBF1F10020E08103226D0491FBF2F837
:102FA00000F052FFA0601FFA88F600F042FA608A33
:102FB000218D678C8842A6F1050857D215E000F0F4
:102FC00092F800F033FA00F0FCFB00F09BF800F000
:102FD00047FA00F005FC00F029FA00F0F2FBE18866
:102FE000102200F046FA00F0E1FB268EB742E6DB45
:102FF000A08CB04263DAFFF75CFD00F017FA00F036
:10300000E0FB00F07FF800F02BFA00F05CF8A6EB94
:10301000400200F0F0FB00F009FA00F0D2FBE1887A
:10302000102200F026FAA168E28921F81200A6EB2E
:103030001546E089401CE081B6B2D9E700F053F8AC
:1030400000F0F4F900F0BDFB00F05CF800F008FAC5
:1030500000F0BAFB00F0CFFB00F0E8F900F0B1FBA4
:10306000E188102200F005FA00F095FB268EBE42A2
:10307000E4DB21E0FFF71DFD00F0D8F900F0A1FB33
:1030800000F040F800F0ECF900F01DF806EB40020B
:1030900000F0B1FB00F0CAF900F093FBE1881022C8
:1030A00000F0E7F9A168E28921F8120006EB154665
:1030B000E089401CE081B6B2A08C8642DADB218C2C
:1030C000E08832465EE3A168E28921F81200E089D7
:1030D000218C401CE081208F7047DFF80C25DFF841
:1030E0000C3501F077BC218CE0883A4601F028BA13
:1030F00060840C21208D00F0CDBFA0840621E08AE1
:1031000000F0C8BFE1881022C9B2012000F0B1BEB2
:1031100004460C21608A00F0BDBF2DE9FC41054644
:10312000E98AAB8A2A8D6C8ACB1A8A1A091B0FF29C
:10313000F8600FF280780FF21C7400F0E1FDA889AE
:1031400000F096FC00F094FC00F049F800263EE008
:10315000A86800EB460082880092438802884046B7
:1031600000F0CEFD31E0288AE98C0128F0D1084634
:1031700001F04AF900F0ADFE0746A86830F81600E5
:1031800001F042F900F0A5FE0146384601F056FA7A
:103190000746A88900F06CFC0090EB89A968721CB6
:1031A000142000F0D2FE01F03DF9DFF84424DFF8EE
:1031B000443401F039FBCDE90001384601F032F921
:1031C00002460B46204600F09BFDF61CB6B2E8898D
:1031D0008642C8DBBDE8F6419AA000F091BD0146E9
:1031E0000FF2586000F08CBD94B000F047F800F08A
:1031F000E9FBADF806000FF2E86000F081FD00F099
:10320000C4FB06900FF2E46000F07AFD00F0BDFB15
:10321000ADF83E000FF2E06000F072FD00F0B5FB8B
:10322000ADF84000FFF7F3FC00F0AFFBFFF7F4FC54
:10323000ADF80C0000218DF842100FF2E45000F0C0
:103240005FFD00F018F800F00DF80FF2B86000F024
:1032500057FD684600F015F8684600F02CF80FF2AC
:10326000B060C7E4ADF81000BDF80600BDF80C1062
:10327000C0B200F0F9BC012000F087BB002000F0D4
:10328000F4BD10B50446A0690128A8BF40F6FC00B3
:1032900003DA00F0C5FFC0F5E160A269E388E082CF
:1032A000811A6182DBB289B280B200F009FF618AC3
:1032B0004018608210BD2DE9FE4F06460621F08AB7
:1032C000DFF81CA3DFF81CB300F0E4FE30840C210F
:1032D000708A00F0DFFE7084F08F01F095F8C64927
:1032E00001F09CFC8146B6F8400001F08DF8C2491F
:1032F00001F094FC044600F09CF80020F0810C21C1
:10330000F08A00F0C7FE0546F08A00F0A6F80146F4
:10331000F0882A4601F014F900F09AFF00F0ABFFA4
:1033200000200DE000F0ABFF01F06EF801F07AF83C
:1033300052465B4601F078FA00F07FF801F096F80B
:10334000214601F0C7F8EDD300F095FF00F07EF8BC
:1033500000F06CF800F08FFF96F84200002778B973
:103360000FF2B85000F0CCFC0AE00095224643462C
:103370000FF2C05000F0C4FC41F2883001F039FA7D
:103380003846494601F0A6F832D200F078FF01F045
:103390003BF801F047F852465B4601F045FA00F071
:1033A0004CF801F063F8F1880746102200F061F84C
:1033B00085B296F842000028E2D1384601F032F892
:1033C0000446308A01288846CFD1B08900F050FBEE
:1033D0000090284601F018F8009900F08DFD01F0EA
:1033E00021F8CDE90001224643460FF23C50C1E7E7
:1033F00000F02CF800F01AF8F188FFF7CCFC01F08F
:1034000099FC00F066FD01467B4801F0A5FC01F047
:103410000FFDF0840C21F08A00F03CFE0246318C56
:10342000F08803B0BDE8F04F01F08AB8052001F044
:10343000E0B94FF4807001F060BD00226F4B01F0E5
:10344000C9BA00005D0000000CED00E0728C318C08
:10345000F08801F075B80746208C062100F01ABEEE
:10346000A168E28921F812001022E089E188401C5D
:10347000E081C9B2002000F0FCBC00002DE9FE4F45
:10348000FFF7FCFE0FF2B84000F03AFC00F07DFAC6
:1034900001F050FC029000260FF2843000F030FC66
:1034A00000F073FA85B2012000F09CFA014600207A
:1034B00000F0DAFB00F0CCFEFFF7BBFF322001F09A
:1034C00098F900F0D8FE022000F078FC04210020DA
:1034D00001F0C9FC0021002001F0D6FC4FF480610E
:1034E0000E2001F001FD012001F013FD012001F08B
:1034F000C9FC43494FF480300860802001F0ACFCE7
:10350000012310224FF44071002001F0AFFC3D492F
:103510000FF2144B0FF2404A3B4F01200860FFF7B7
:1035200085FFFFF786FF322001F063F900F093FC7E
:103530000FF2144000F0E4FB0FF2E03000F0E0FB8B
:1035400040E0012D3AD13148494601F007F800F03A
:1035500069FF2F4A2F4B01F03DFA00F087FF00F082
:1035600061FFCDE9000122464346584624E000F0C1
:1035700086FE00F049FF00F055FFFFF7ECFCFFF777
:103580005CFF00F073FF06463A78002AFCD000F09A
:103590005EFC00F039FF814600F05DFC304600F033
:1035A00041FF002D04468846CBD1484601F040FC3F
:1035B000009022464346504600F0A2FB4FF47A703A
:1035C00001F017F90299304600F084FFCFD3BDE82F
:1035D000F74F00F050BE00000400FA0570FEFFFF38
:1035E000295C8FC2F5280440C976BE9F1A2FE13F9F
:1035F000713D0AD7A370ED3F00007A4400408F4030
:1036000004E100E098200C40800A002000DAFBC6AC
:10361000CDCCCCCCCCCC314094B0FFF72FFE00F019
:10362000D1F9FFF734FC00F0B0F90690FFF76DF91F
:1036300000F0ABF9FFF715FC00F0A7F9FFF71CFC51
:1036400000F0A3F9FFF712FC00F09FF9ADF832008B
:10365000C4A000F055FB00F098F9ADF83A00FFF770
:10366000D0FA00F092F9FFF7D0FA00F08EF9FFF7E8
:10367000D2FAFFF712FCFFF7FEFDFFF7F3FD00BFE4
:10368000BAA000F03DFB6846FFF7C9FA6846FFF7AD
:10369000EFFA684600F009F800F0A1FD6846FFF770
:1036A00090FB00BFB4A0FFF7A5BA2DE9F041FFF7EA
:1036B0002FFD6084FFF703FAFFF71FFD20846426C7
:1036C000A08E01F003F8FFF708FD01F00DF8208748
:1036D0004CF25031608FE58E4643608E91FBF0F0E6
:1036E0000021E1810322B6B290FBF2F26D04C6EB39
:1036F000420800F0A9FBA060761FFFF79AFE608ADF
:10370000A18A678C1FFA88F88842A8F1050833D28D
:10371000A08C874233DAFFF7E6FCFFF787FE00F064
:1037200050F8FFF7EFFCFFF79BFE00F059F8FFF7AA
:103730007DFE304601F05DF8E1881022FFF799FE2A
:1037400000F034F8E4E7FFF7CEFCFFF76FFE3046F9
:1037500001F04FF8FFF7D6FCFFF782FE00F034F8D7
:1037600000F049F8FFF762FE00F02BF8E188102224
:10377000FFF77FFE00F00FF8A08CB842E3DB218C4E
:10378000E0883A4600F0DCFEFFF750FEFFF702FB50
:10379000E084BDE8F081A168E28921F81200A7EB7E
:1037A0001547E089401CE081BFB27047A168E289FB
:1037B00021F8120007EB1547E089401CE081BFB2F9
:1037C0007047404601F015B8A168E28921F812005F
:1037D000E089218C401CE081208FA7EB40027047DC
:1037E000A168E28921F81200E089218C401CE08167
:1037F000208F07EB4002E08800F0A2BE5B3A5356F0
:10380000495D00005B3A5656495D00005B3A5445FD
:10381000495D00005B3A52544941495D0000000097
:103820005B3A504D495D00005B52414E47453A2599
:10383000692C25692C25695D000000005B52474119
:10384000494E3A25695D5B524553554C54533A0AEB
:1038500000000000252E34662C252E34660D0A004B
:1038600025692C25692C25690D0A00005B3A414D1C
:1038700050495D005B3A53544550495D00000000DB
:103880005B3A46524551495D000000005B5354418C
:1038900052543A5357565D005B454E443A5357567F
:1038A0005D0000005B52414E47453A25692C256971
:1038B0005D00000025692C25692C25692C25690DE2
:1038C0000A0000005B53544152543A435357565D2B
:1038D000000000005B454E443A435357565D0000DC
:1038E0005B3A5354455056495D0000005B3A5354CF
:1038F00045504C495D0000005B3A535445504449E3
:103900005D0000005B53544152543A43415D000056
:103910005B454E443A43415D000000005B52455315
:10392000554C54533A0A0000252E33662C252E336D
:10393000660A000025692C252E33660A0000000067
:103940005B3A4D44495D00000A5B53544152543A7E
:103950004F43505D00000000252E33662C25690A78
:10396000000000005B3A5057495D00005B53544132
:1039700052543A4450565D005B454E443A445056CA
:103980005D0000000B490870704710B500F00CF89E
:103990000A490B4C0A680020A05401F0DBFA2046CB
:1039A000BDE8104001F022BC034908780028FCD093
:1039B000704700007E0A0020830A0020700A002061
:1039C000580A002080B500BF04A000F099F9FFF765
:1039D000DCFFC0B200B1012002BD00005B3A5343DE
:1039E000495D0000192840D8DFE800F00D3F0F11B5
:1039F000131517191B1D1F21232527292B2D2F31A7
:103A0000333537393B3D0020704703207047042091
:103A10007047052070470620704707207047082030
:103A20007047092070470A2070470B2070470C2010
:103A300070470D2070470E2070470F2070471020F0
:103A400070471120704712207047132070471420D0
:103A500070471520704716207047172070471820B0
:103A60007047192070471A207047022070470000E5
:103A70001A284CD8DFE800F00E4B4B101316191C17
:103A80001F202326272A2D30313437393B3D3F4232
:103A900043454800002070474FF4FA60704740F6F5
:103AA000B83070474FF47A60704741F270707047D9
:103AB0004FF4FA5070472DE042F6E06070474FF443
:103AC0007A50704729E045F6C050704747F23050B1
:103AD00070474FF4FA40704722E04BF68030704751
:103AE0004FF47A4070474F4870474F4870474F48EF
:103AF00070474F4870474FF4FA30704713E04D4815
:103B000070474FF47A3070474FF4FA2070474FF403
:103B10007A70704742F21070704744F62060704728
:103B200049F640407047444870472DE9F84F002857
:103B30004248434CDFF80CE1DFF80C81434F444D21
:103B4000444E48F2090B4FF4102AA0F800B0C4F814
:103B500000A042F6112CCEF80080C4F844C04FF407
:103B600078714FF0000CC7F800C0E64640F21652DC
:103B700044F2D1534FF4FF79C7F848E01DD1DFF884
:103B8000D8C03648DFF8D8E0CCF80000CEF80060A6
:103B9000002000262665B8653426FE655820786624
:103BA00001267E6734202860B446C5F804C002268A
:103BB00000F02BF80022AA6321E0DFF89CC029481E
:103BC000DFF89CE0CCF80000CEF80060342000263E
:103BD0002665B865FE650020786644F238063E66C4
:103BE0000120786700262E604FF0340CC5F80CC019
:103BF00002206860012600F008F80020A8634FF456
:103C00007A70BDE8F24F00F0F4BD2E61C4F8109058
:103C1000042060612363E263B966FD20F866FD213C
:103C200039677047084C010000770100A086010049
:103C3000C0D40100A0FD020000710200000A0C4087
:103C400000200C40F0220C400C20040088200C4086
:103C500024210C40A0A587DEA8210C4021020100F0
:103C600030220C402203040038B504460D460120E2
:103C700001F0C4FA0021204600F040FC002300229D
:103C80000021204600F04EFC0021204601F0FEFA03
:103C900000220021204601F00BFB07231322002104
:103CA000204601F0DFFA4FF47A7000F0A2FD2046C2
:103CB000FFF73BFFEAB2204601B0BDE830400023E9
:103CC000002101F0CFBA30B501688468421841681C
:103CD00002EB5103C90703D54C4401E0491C08D14C
:103CE0009A4218BF12F9011B01D10C3030BD12F8F5
:103CF000015B002904F8015BF0D4491EF7D5EFE71A
:103D00000EB4C0B5024603A800210190009101AB9A
:103D10000121044878440C3001F00BFB06BC5DF82F
:103D200010FB00BF69670000010008D4012200F009
:103D30001F01DFF858348A40400943F820207047BB
:103D400010B500F036F800F030F8002C4FF40061A8
:103D500014BF1E201A200AE010B500F02AF800F067
:103D600024F8002C4FF4006114BF0F200E2001F046
:103D7000BBF8012001F0CDF8012001F083F83020DC
:103D8000FFF7D2FF802001F067F8012300224FF4F3
:103D90004071002001F06AF8DFF8F4130120086098
:103DA0000520BDE8104000F024BD0021002001F0F6
:103DB0006BB804460421002001F055B810B5FFF798
:103DC000F8FFFFF7F2FF022C03D14FF480610520CA
:103DD0000AE0032C03D14FF4C061072004E0042C57
:103DE00004D14FF45061162001F07EF8012001F05B
:103DF00090F8012001F046F800F020F8802001F052
:103E00002BF801231022C2E710B5044600214FF41D
:103E1000803001F039F8002C19BF4FF44071222096
:103E20004FF40071212001F05FF8012001F071F8DA
:103E3000012001F027F800F001F8A3E7DFF85413A0
:103E40004FF4803008607047DFF850037047DFF8A8
:103E5000500300887047DFF84C130020087070474B
:103E6000DFF84013012008707047DFF83C1308703A
:103E7000704770B5034608461546002413B9FFF78E
:103E8000C3FF0DE0012B02D1FFF75AFF08E0022B20
:103E900002D1FFF761FF03E0032B08BFFFF78EFF9E
:103EA0004FF4807001F029F8DFF8F812DFF8F032F3
:103EB000002008700022002606E008780028FCD0C8
:103EC0000E70521C18880419AA42F6DB94FBF5F018
:103ED00070BD80B54FF0474100F040FB4FF060519E
:103EE00000F03AFFDFF8C41200F036FFBDE80440EE
:103EF000DFF8BC1200F032BB38B504460D464FF077
:103F00004740214600F02AFB4FF07F5100F086FE2B
:103F1000DFF8A01200F020FF4FF0605100F01CFF0E
:103F2000DFF8941200F018FF0446284600F002FF64
:103F30000146204600F072FE974900F00DFFBDE8F3
:103F40003440DFF8781200F009BB2DE9F74F1E4628
:103F5000DDF808B00446A4EB84039B449B1901934D
:103F600004EB4404029B0C9AE31800930D46029F55
:103F700000200021A74221DA012790460024814633
:103F80000098874243DAA91C31F8170000F03CFA88
:103F90004146FFF7B1FF824635F8170000F034FACA
:103FA0004146FFF7A9FF0146504600F047FB00F0ED
:103FB00061F800F069F88146FF1CE1E7BC42BCBF34
:103FC000019B9F4226DAD8462E461746002481469A
:103FD0000098804546DAB11C31F8180000F014FA58
:103FE0003946FFF789FF054636F8180000F00CFA4D
:103FF0003946FFF781FF0146284600F01FFB00F01D
:1040000039F800F041F8814608F10308E0E742463C
:1040100020464946019B029CA342374624DA5B4670
:104020002E469346044689461D4619E0B01C30F8DA
:10403000150000F0E9F95946FFF75EFF824636F8B1
:10404000150000F0E1F95946FFF756FF01465046CA
:1040500000F0F4FA00F00EF800F010F88146ED1CC4
:10406000BD42E3DB20464946FFE703B0BDE8F04F21
:1040700000F0D4BD0146204600F070BA044649461F
:104080004FF07E5000F06ABA04464FF07E51484629
:1040900000F064BA10B50C46C83802F09FF80C2C3A
:1040A00002D1474A474B03E0062C07D1464A474B0B
:1040B00000F090FC00F018FB80B210BD002010BD95
:1040C0002DE9F8430646084614461D460C21FFF725
:1040D000E1FF074606213046FFF7DCFF01463A467E
:1040E000284600F02DFA322000F083FB10222946EA
:1040F0000220FFF7BEFE0646204600F01BFE0446E7
:10410000304600F017FE00F065F84FF060590146A8
:10411000484600F021FEDFF89480254F01464046D6
:1041200000F01AFE0146384600F018FA01461A4817
:1041300000F012FE0646102229460120FFF799FEE4
:1041400000F0F8FD00F046F80146484600F004FE95
:104150000146404600F000FE0146384600F0FEF9F8
:1041600001461B4800F0F8FD0146304600F0F6F924
:104170000146204600F062FA0146104800F0ECFDCE
:1041800000F056FE001FBDE8F283000000E100E0F1
:1041900098200C4004E100E000007A440000042074
:1041A0007C0A0020800A0020820A0020C3F5E83F34
:1041B000D34D923F0060E544110E813F000080BF67
:1041C000C976BE9F1A2FE13F713D0AD7A330414007
:1041D00000007AC401464FF0474000F0BFB980B5F7
:1041E000002300220021002000F09CF90021032080
:1041F00001F07EF8002000F02FFE002000F07DFE90
:104200000321002001F042F8002001F063F80221B0
:10421000002000F073F9BDE80240022000F0EEBF7C
:10422000002848BF4042704710B500F03DF80146F5
:10423000184C204601F0F2FF98230222202120464C
:1042400001F0DEFF14494FF48070086010BD0000DB
:1042500080B54FF480714FF0804001F0DFFF98236C
:10426000032220214FF0804001F0CAFF0B494FF498
:104270000060086001BD0A490020086070470848D6
:1042800000687047074908780028FCD000220A70AF
:10429000704700000008004004E100E000E100E099
:1042A000680A0020840A0020401E4AD0001F4BD01C
:1042B000401F4CD00A384DD00A384ED00A384FD063
:1042C000143850D00A3851D00A3852D00A3853D056
:1042D0000A3854D0323855D0323856D0323857D0C8
:1042E000323858D0323859D032385AD032385BD080
:1042F000323872D032385AD032385BD032385CD053
:1043000032385DD032386BD032385CD032385DD044
:1043100032385ED032385ED032385ED04FF4FA7127
:10432000401A5DD0401A5ED0401A5ED0401A5ED06E
:10433000401A5ED0401A5ED0401A5ED0401A5ED05D
:104340005FE045F6EF0070474AF66330704745F28C
:10435000B150704742F6D820704741F69040704700
:1043600041F26C50704740F64860704740F63D405F
:10437000704740F6B620704740F68510704740F60B
:104380009100704740F2B55070474FF48960704714
:1043900040F26D30704740F2DB20704740F27220EF
:1043A00070474FF40970704740F2E71070474FF4C0
:1043B000C770704740F26D10704740F2511070475F
:1043C00040F2391070474FF4897070474FF4817094
:1043D0007047F3207047E62070474FF4DB7070475A
:1043E0004FF492707047DB207047AF2070479220E7
:1043F00070477D2070476D207047612070475720BF
:10440000704741F22310704750B1B0FA80F18840F4
:10441000C1F19D01C905020672F1004241EB102075
:104420007047FEE7C0F3C75181B1FF2906D0C11024
:10443000400721F0E04101F16051704741020CBF9B
:1044400040F4E0016FF000410020704700F00041AF
:1044500000020AD0B0FA80FC00FA0CF001F16051C1
:10446000A1EB0C5101EBD0214005704701F0004257
:104470008B1AA3F16051B1F5801F0ADBB1F17F6F98
:104480001FD242EAC102C10071F1004142EB5070FB
:1044900070470B15C3F10903212B10D2890241EAA1
:1044A000905180020128494141F0004121FA03F076
:1044B000C3F12003994071F1004150417047100051
:1044C00070476FF0000013EB103F5CBF000E42EA34
:1044D000C050704740EA010C1CEB0C0F4FF0807C81
:1044E00007D305D01CEB400F9CBF1CEB410F814252
:1044F00070471CEB410F98BF88427047154A40B97E
:1045000013684FF6FD700340194341F0010189B271
:1045100010E0D3684FF6FD700340194341F00101EC
:1045200089B20AE01143194341F00101094A00B977
:1045300000E002E0116010687047D160D0687047F9
:1045400042EA0132044910B90A6008687047CA603B
:10455000C868704728210C4020210C4090EA010FC8
:1045600040F1728081F00041431A4FF000423EBF9B
:104570005340C01AC918D3095FEAD05C13EB400F4F
:1045800034BFB3EB410F40E07CEBD1530CD342EA94
:10459000012122D8D1EB402009D3400A28BF5FEA8D
:1045A000500140EBCC507047401A15D04002B0FA91
:1045B00080F2521C9040400A4FEA3C23B3EB026366
:1045C00084BF00EB730007E040F400001A16DB071D
:1045D000C2F10102D04018437047182BFCDC31FABD
:1045E00003F202FA03F3591A38BF42F00102D2EB88
:1045F00040203CBF0018ACF1010C5FEACC5CC20566
:1046000072F100414CEB5020704713EB400F0FD27A
:10461000C94209D0ACEBD153022B03DB4902172B63
:10462000DDDD70479143401AC042D5D1002070476C
:1046300013EB410FD0D36FF00000704790EA010FE9
:104640007FF592AF81F00041421A3CBF801A891871
:10465000C0F3C752FF2A4FF0004C22D0C1F3C7531A
:104660004BB3D21AD2F119032EDD4CEA01214CFAD8
:1046700003F321EA0303D1404CEA00226FF3160052
:1046800052180FD353EAC2534CEA520273EB0C0C8C
:1046900050EB1220420012F1807F38BF70476FF359
:1046A0001600704753EA026322EA0C0273EB0C0C0B
:1046B00050EB12207047490212BF9A4200EB512082
:1046C000EFE7D2F11703D2D57047FEE750B1B0FA49
:1046D00080F18840C91CC1F58461090501EBD02136
:1046E0004005704701467047C1F30A5340F21E422D
:1046F000D31A0CDDCA0283F3070342EA505242F098
:104700000042DA4002EBE17282EAE17070476FEA40
:10471000E17203F2E13008B182F000407047FEE739
:1047200010B53A490A6802F00302904207D002002D
:1047300010D0032803D1086840F00300086001206E
:1047400010BD4CF6143313600023546844F0020487
:10475000546013602E4A53689C05F2D50A6892088B
:1047600040EA8200EAE7F8B52A4E326804460D4670
:10477000B2FBF4F77168384600F02FF80028F9D042
:10478000A542FDD344EA0524234844EA05440460D5
:104790003946002000F002F80120F2BD10B51D4C92
:1047A00028B1022816D0032808BF616013E008462C
:1047B000FFF78CFF0022194B00F00CF90022184B78
:1047C00000F008F90022174B01F03AFD01F068FEF5
:1047D000A06000E02160012010BD01EB4102904289
:1047E00005D200EB400081428041C00F704700209D
:1047F000704708498968012805DB401E4A1E012AC6
:10480000F9DB521EFBE770470000000000C30440C4
:104810000CC104404001002004C30440006AF84079
:10482000000014400000E03F30B540F2FF7C1CEA7D
:1048300011541DBF1CEA1355644565453FE06419DA
:1048400081EA030C6FF35F530CF0004C43F48013C8
:10485000C90241F0004141EA505EC5021100A5FBCA
:10486000020200284FF00000EEFB01204FF0000193
:10487000E3FB052118BF42F0010240180021494125
:10488000E3FB0E01A4F580640D0302D292184041AF
:10489000494154F1010470DD450872F1004250F1C4
:1048A000000051EB0451A1F5801102D441EA0C0142
:1048B00030BD40F2FF7E4CEA0E51002030BD0CEAC4
:1048C0001355644518BF654581EA030C0CF0004C94
:1048D00041D050EA410E1CBF52EA430E02E061464D
:1048E000002030BD24422C441BD15FEA050EF6D0D7
:1048F000090302BF01460020AEF1140EB1FA81F5A2
:10490000AEEB050401FA05FE0C35C5F1200100FAF5
:1049100005F5C8404EEA000E6FF35F5343F4801371
:104920009CE733F00043B3FA83F504BFB2FA82FE8A
:1049300075440B3D641BB5F1200E2FBF02FA0EF338
:10494000AB40C5F1200E22FA0EFE38BF43EA0E033B
:10495000AA40641C7CE750EA410E14BF52EA430EA1
:104960006FF000014FF4001515EB430F8EBF194691
:1049700015EB410F9DE7B4D830BDD4F10104B4F17B
:1049800020050FDAC4F12005520828BF42F00102C9
:1049900010FA05FE01FA05F57244E2BFE040284333
:1049A000E1400FE0352C9ADCC5F1200452EA4002C8
:1049B00020FA05F218BF42F0010231FA05F0A140D9
:1049C0000A43002172F1004250F1000051EB0C014A
:1049D00030BDFEE7F0B540F2FF7581EA030C0CF044
:1049E000004C15EA11541DBF15EA1357AC42AF42F3
:1049F000E5E0BC41C1F31301C3F31303801A9941ED
:104A000043F4801304D2641E0018494180185941B0
:104A1000C90241EA5051B1FBF3F603FB1611A2FBA8
:104A20000675D7EBC020A94102D2761E80185941E5
:104A3000C90241EA5051B1FBF3FE03FB1E11A2FB78
:104A40000E75D7EBC020A94103D2AEF1010E80183C
:104A50005941890241EA9051760546EA8E2EB1FB12
:104A6000F3F603FB1611A2FB0675D7EB8020A941D4
:104A700002D2761E80185941C90241EA50514EEACD
:104A8000060EB1FBF3F603FB1611A2FB0675D7EB7E
:104A9000C020A94102D2761E80185941C90241EABC
:104AA0005051B1FBF3F703FB1711A2FB0735D3EB12
:104AB000C020A94167F100070CBF004247F0010781
:104AC00066F3D5274FEA1E31B80814F5806412DD6D
:104AD000BD0775F1004250EB0E5051EB045111F53A
:104AE000801F5CBF41EA0C01F0BD4CF07F6141F0DA
:104AF000E0410020F0BDBD076D0840EA0E5041F4D2
:104B00008011D4F10104B4F120060ADAC4F12006C0
:104B10000200E04001FA06F3E1401843B2401543B9
:104B20000EE0342C13DCC6F1200445EA40056D0884
:104B300020FA06F2154321FA06F0A1400D430021A8
:104B400075F1004250F1000051EB0C01F0BD002066
:104B50005FEA0C01F0BDCFB992185B41B3FA83F75D
:104B600004BFB2FA82F6BF190B3FB7F120062FBF80
:104B700002FA06F3BB40C7F1200622FA06F638BF58
:104B80003343BA401CB1E419641E33E77F4231F06D
:104B90000041B1FA81F404BFB0FA80F6A4190B3CCD
:104BA000B4F120062FBF00FA06F1A140C4F120069F
:104BB00020FA06F638BF3143A0403C1B1AE7AC424E
:104BC0001ABF05EA1357AF4212E050EA41061CBF74
:104BD00052EA4306BFE750EA4107304661461CBF30
:104BE00041EA0551F0BD52EA430C08BFC143F0BD94
:104BF00000204FF4001616EB410F98BF16EB430F41
:104C000008BF16EB410F24BFC14305E016EB430F6D
:104C10000CBF61464CEA0551F0BDFEE74FF0FF0CBA
:104C20001CEAD0531DBF1CEAD1526345624543E0E4
:104C30009B1A5FEACC7280EA010C42EA01211CEA6D
:104C4000020C42EA0020421A38BF01EB420253F143
:104C50007E034FEA1121B2FBF1F001FB102260F359
:104C6000D63C4FEA0222B2FBF1F001FB102260F3C6
:104C7000CE1C4FEA0222B2FBF1F006DDFF2B29DA4F
:104C80005CEA500040EBC3507047C3F1020301FBE4
:104C90001022192B40EA4C010CF0004C41F08071BD
:104CA00021DC21FA03F0C3F120039940114371F193
:104CB000004250EB0C00704763451ABF0CEAD1521A
:104CC000624512E080EA010C00180CF0004C06D09E
:104CD00049181AD10CF0004C4CF0FF407047C94203
:104CE00008BF6FEA020C60467047634506D1B2EB1D
:104CF0000C02F5D001F00041484070474A0212BF53
:104D00000846484000F0004070474AB90902B1FA2D
:104D100081F2914043B19B18C00140F0004092E7FE
:104D2000C90141F0004152420002B0FA80F39840BC
:104D3000D31A88E710F0004C68B148BF4042B0FA7F
:104D400080F18840D1F19D014CEAC15C010671F10E
:104D500000414CEB10207047FF2212EAD05C1DBFCF
:104D600012EAD153944593422BE09C44D30780EA46
:104D7000010243EA002043EA01211A40A1FB00306E
:104D8000C04238BF00187CF17F010BDBFE294ADAF4
:104D90005B0842EAC15153EA006373F1004C51EBE6
:104DA00010207047D1F1080CDCF120012FDB5B08EB
:104DB00010FA01F10B4320FA0CF073F1004150415D
:104DC000704794451CBF02EAD153934280EA010226
:104DD00002F000421DD0400019D0490017D05BB945
:104DE000634514D00902B1FA81F39940BCEB030C7E
:104DF000C00140F00040C1E70002B0FA80FC10FAA8
:104E00000CF0B3EB0C0CC90141F00041B6E7100007
:104E1000704740000AD0490008D010F1807F94BF4D
:104E200011F1807F02E042F0FF407047D0437047AD
:104E3000C0F3C751D1F19E0108DD020242F00042E9
:104E4000CA4002EBE07282EAE07070477FEAE070ED
:104E500080F000407047FEE734490A6822F0800283
:104E6000104308607047084331495CE070B5314D2C
:104E7000314C2E68084310432640184330432860C5
:104E8000286870BD2D4941E070B52D4B2D4CDA6F6F
:104E900022F4F0221043264A1568EE075CBF2A4D23
:104EA00025601268D50744BF284A22600A0018D03E
:104EB00041F6FE725143491C41F2301591FBF5F168
:104EC00001F5006189B2012240F400409A60B1F519
:104ED000805FBCBF01F500311960216821F4F871D1
:104EE0002160D867D86F70BD194A13685B0B40EA20
:104EF000433008431060106870470C490A680B681B
:104F000023F4807322F480720B60104308600868F9
:104F100070470C49002808680FBF40F00F000009D7
:104F2000000140F0040008600120704700200C40A0
:104F3000F0220C4044200C40AEC0FFFF88200C4003
:104F40002C210C408C230C40043D5F000F3D5F0082
:104F5000A8210C40444900200870012070474348B4
:104F6000434A416A1378012B07D189070ED50222E3
:104F7000426201203F4908707047CA0706D50121E7
:104F8000416200683C4A1080FEF76ABF70471CB55A
:104F900000210091394C204601F041F90090009821
:104FA000C10706D50121204601F03BF93449012013
:104FB000087013BD80B5002100914FF0804001F0D2
:104FC0002EF900900098C10708D501214FF08040CC
:104FD00001F027F92B480168491C016001BD2DE94A
:104FE000F041DFF8A480294D404601F0D8FA404650
:104FF00001F0E8FA2860286800F00E000C281EBFB7
:10500000286800F00E0004282BD1214DB8F8340098
:10501000204E214F2860002407E0404601F0CAFAE4
:105020003870E1B238787054641C2A68E0B290425B
:10503000F3D330781B280CD1BFF34F8F1749184892
:105040000A6802F4E06202430A60BFF34F8F00BFB8
:10505000FDE70621404601F099FA0348012101705D
:105060000078BDE8F0810000830A002074200C4025
:10507000820A0020810A00207C0A002000080040EB
:10508000840A0020680A0020005000406C0A0020BA
:10509000700A0020580A00207F0A00200CED00E072
:1050A0000400FA052DE9F84F84B00BB100241C6010
:1050B0000446A04601E008F1010898F80000A0F1BC
:1050C0000903052BF7D32028F5D02D2816BF2B2850
:1050D00018F8015B2B25002A019103D4012A01D085
:1050E000252A03DB00295AD00C6058E0002A0CDD89
:1050F000102A04BF98F80000302802BF98F8010079
:1051000040F02000782811D10CE098F800003028F9
:1051100018BF0A220AD198F8010040F02000782830
:1051200003D1102208F1020800E00822CDF80C801B
:1051300001E008F1010898F800003028F9D0074E86
:105140007E4418364FF0000906F12800CDF808809B
:10515000CA468DF8000017460DE000BFD45100008C
:1051600001469DF80000081ACA465FFA80FB07FB5B
:1051700009B908F1010898F80010A1F141001A28B6
:1051800038BF20313A4606F1280001F01DFA002808
:10519000E6D10399414504D1019800B10460002093
:1051A00020E00299F05DA8EB0101091A002910D452
:1051B00006DCB9EB0B0103D3B1FBF7F0504508D087
:1051C000AFF30080049808B1012101604FF0FF396E
:1051D00003E02D2D08BFC9F10009019808B1C0F8FE
:1051E0000080484605B0BDE8F08F04E000E0000014
:1051F0000A220021F9E7002354E7FEE770B50228F0
:10520000134A144944F6590312D193809180012422
:105210001480114C256845F440652560666846F4A5
:10522000C04666600D4C256845F48035256004E075
:105230000B4C25882488A542FAD1938091804FF6A3
:10524000FC7113880B4018431080012070BD0000D2
:10525000000A0C407BF2FFFF54210C400C200C4054
:1052600004040C40520142EA812242EA43322A49B4
:105270002A4B28B1186801400A431A601868704721
:10528000586801400A435A6058687047234A20B161
:105290001068800841EA800104E05068800841EA13
:1052A000800102E0116010687047516050687047DB
:1052B0001A4B38B1186820F01C00014311431960E3
:1052C00018687047586820F01C000143114359606A
:1052D000586870470128124904D1086840F40060FA
:1052E000086003E00A6822F400620A6008687047F8
:1052F00003280C4A0AD8DFE800F00204060811600F
:1053000004E0916002E0516000E0D16006494FF492
:1053100080300860012070471F00FFFFE8200C402C
:1053200000200C4050210C400C200C4040F020008C
:1053300070472DE9F14FB0B0924604910DF1420152
:105340003A9A2B9199464A7000200AE01AF8011BFC
:105350000498309A90470028049000F034860D9805
:10536000401C0D909AF8000050B12528EED1002184
:1053700000220791089209910A920B910C9204E085
:105380000D9800F022BE41F001011AF8010F20280B
:10539000F9D023280CD02B2804D02D2805D0302874
:1053A00009D00BE041F00201EFE741F00401ECE726
:1053B00041F00801E9E741F01001E6E72A280FD1A2
:1053C000D9F8002052F8040BC9F8002000280F90EB
:1053D00003D540420F9041F004010AF1010A14E0A4
:1053E0000F92DFF8EC3B0AE00F98984205DA00EBE9
:1053F000800402EB4402303A0F920AF1010A9AF853
:105400000020A2F130000A28EED39AF800002E28DE
:1054100003D04FF0FF320E9229E01AF8010F2A282C
:1054200009D1D9F8000050F8042BC9F800000E92F9
:105430000AF1010A1BE02D280CBF0AF1010A002025
:1054400000220E92DFF8884B0BE040B90E9AA24280
:1054500005DA02EB820503EB4503303B0E930AF1BC
:10546000010A9AF80030A3F130020A2AEDD3ADF810
:1054700040100FF660309AF8001001F0D1F808B132
:105480001AF8010B8DF842009DF84200682805D1FA
:105490009AF8000068280CD1622106E06C2804BF4D
:1054A0009AF800006C2804D171218DF842100AF19D
:1054B000010A12A806901AF801BBBBF125012CD0F5
:1054C0001C3900F09481091F022940F290811339A0
:1054D00000F0AB84093900F08A81891E00F0408514
:1054E000491E00F0ED84491E022940F28081091F07
:1054F00000F0E684491F00F0EF80491E00F095841B
:10550000491E00F0D780C91E0CD0891E00F08D8482
:10551000C91E00F08A8400F02EBD012307932521C7
:1055200000F026BDD9F8000050F8044BC9F800007F
:10553000002C059440F0AB802B994878002800F0AF
:10554000A1804FF0FF340FF6942001F075F8241A73
:1055500040F0398500F01BBD01236A4602A93046A0
:1055600000F000FE002840F02E85641EF4D1309635
:10557000079C12AF74B1309E17F8011B0498B04716
:105580000028049000F01F850D98401C641E0D90AB
:10559000F2D130960A9C3021002C8DF800100CDDE1
:1055A000309E01236A4602A9304600F0DBFD002848
:1055B00040F00985641EF4D13096059F089C74B1B3
:1055C000309E17F8011B0498B0470028049000F0A3
:1055D000FA840D98401C641E0D90F2D130960B9CFD
:1055E0003021002C8DF800100CDD309E01236A461E
:1055F00002A9304600F0B6FD002840F0E484641EA5
:10560000F4D1309605980899099C471874B1309EDA
:1056100017F8011B0498B0470028049000F0D384C9
:105620000D98401C641E0D90F2D130960C9C3021D8
:10563000002C8DF800100CDD309E01236A4602A973
:10564000304600F08FFD002840F0BD84641EF4D188
:1056500030969DF8400041077FF584AE2020002D54
:105660008DF800007FF77EAE309C01236A4602A9C8
:10567000204600F077FD002840F0A5846D1EF4D18F
:1056800030946FE60FF63C30059000F080BC0E9D24
:10569000002D04D5204600F0EFFF044607E02A461F
:1056A000204600F091FF002814BF041B2C460894EC
:1056B00000F06DBCD9F8001051F8040BC9F80010C7
:1056C00020F00004002121F0FF35CDE9024512ABA6
:1056D0000593782100F040BC2B99487820B14FF019
:1056E000FF340FF6B02030E79DF84200622860D00A
:1056F000682817D06A283FD06C2806D0712847D078
:1057000074282CD07A281DD062E0D9F8001051F806
:10571000040BC9F80010002866D14FF0FF340FF6D3
:105720008C2012E7D9F8001051F8040BC9F80010CA
:1057300020B94FF0FF340FF6742006E70D99018071
:1057400000F025BCD9F8001051F8040BC9F800107E
:10575000002849D14FF0FF340FF65020F5E6D9F874
:10576000001051F8040BC9F8001000283CD14FF08C
:10577000FF340FF63820E8E6D9F8001051F8040B92
:10578000C9F8001080B94FF0FF340FF62020DCE696
:10579000D9F8001051F8040BC9F8001020B94FF0E7
:1057A000FF340FF60820D0E60D9AD317C0E9002386
:1057B000EDE3D9F8001051F8040BC9F8001020B936
:1057C0004FF0FF340FF6E410BFE60D990170DEE3F1
:1057D000D9F8001051F8040BC9F8001020B94FF0A7
:1057E000FF340FF6C810B0E60D990160CFE39DF8C5
:1057F00042004C2807BFD9F80010CA1DD9F8000094
:10580000C21D22F00702C9F80020D2E900010832C7
:10581000C9F80020CDE90201C80F02D007982D2158
:105820000AE0BDF84000810702D507982B2103E06C
:10583000C00705D50798202112AA1154401C0790D3
:1058400012A807994BF0200300EB010CDDE90201DF
:10585000CDE92C01612BCDF814C021AC0BD00E98F2
:10586000002848BF062105D404BF4BF0200067285C
:1058700001D101210E91DDE902014F0047EAD07705
:105880007E15FF174FF0FF32974208BF964210D1A6
:10589000090341EA10510003002908BF002808D07D
:1058A000ABF1610503211A2D089118D30FF61C11D5
:1058B00010E0DDE902014A00521512F1010F11D189
:1058C00008030FD1ABF1610503211A2D08911FD3F5
:1058D0000FF600110322604600F0EAFE57E30FF6D0
:1058E000E801F7E7DDE902016A4600F0EDFECDE9E7
:1058F00002014BF02000612811D105983021017080
:10590000821C0592BBF1610F0CBF7821582102E087
:105910000FF6BC01DEE741700798801C0790DDE9B7
:10592000020120F0000231F0004308BF002A02D13A
:105930000026002542E14BF02008B8F1610F40F04D
:1059400092800E98002847BF21210191401C0190B0
:10595000019FDDE92C017F1C00220023DDE90245C7
:1059600000F0EAFE38BF85F0004500998DF88420EC
:10597000091F002F00910DF1850632DD20462946D2
:105980000022002300F0F2FE2BD21C2200F008FFC0
:1059900004460D46FEF7A8FEFF1F002F804609DDD6
:1059A00000F01CFC02460B462046294600F006FD8E
:1059B00004460D46F01D0721B8F1000F0CDD491E0D
:1059C0005EBF08F00F0200F8012D4FEA2818F3D54A
:1059D00002E0002200F8012D491EFAD5C61D002F55
:1059E000CCDC0DF18500361A01980DF18504864254
:1059F000D8BF304600282FD4B04206DA0DF1850119
:105A00000A5C082AA8BF0F2100DA0021024621AB58
:105A1000134400E0401E13F80159521E8D42F9D084
:105A20000F2904D10DF185018B5C5B1C8B54002A7E
:105A300004D50099091D21AC401C0091411E0BD4D6
:105A4000621813783033DDB23A2DA4BF5B443A3B81
:105A5000491E02F80139F4D50E99002940F1AC80B5
:105A6000421E0E92A8E00099DFF8E82647F2975010
:105A7000414391FBF2F20092DDE92C45C2F10702AD
:105A8000002A25F0004504DD2046294600F03EFBB3
:105A90000BE052420020DFF8C01600F037FB024650
:105AA0000B4620462946FEF795FF04460D46B8F101
:105AB000660F06BF009F0A3706270E983F18142F5F
:105AC000C8BF142730208DF884000DF18506002F03
:105AD00034DD2046294600F0E3FC01460A4606F183
:105AE000080304200A26B2FBF6F606EB860EA2EBAC
:105AF0004E02303203F8012C0A22B6FBF2F202EB1E
:105B0000820EA6EB4E063036401E03F8026DE9D138
:105B1000083F002F03F10806D9DD0846FEF7D6FD41
:105B200002460B462046294600F048FC0022DFF8DA
:105B30002C36FEF779FE04460D46CAE70DF18500C6
:105B4000361A0DF1850404E00098401E761E009080
:105B5000641C20783028F7D0B8F1660F02D1009885
:105B6000401C04E0B8F1650F0CBF012000200E9925
:105B700040188642B8BF701E00281DD4B04204DA17
:105B8000215C3429C8BF392100DC30210246631E64
:105B90009D1800E0401E15F80169521E8E42F9D092
:105BA000392902D1A15C491CA154002A04D50099CD
:105BB000491C1C46401C00910646009D0E9F30B2B9
:105BC000002802DC01260FF210644BF0200066284A
:105BD00008BF6D1C15D067280FFA85F841D118F160
:105BE000040F44DBB84542DA9DF840006D1C010704
:105BF00003D430B2B842D8BF074628B23F1A48BFD4
:105C000000270FFA85F8B8F1000F00F3AF8008986D
:105C1000411C0891302205990A54002F03DC9DF89D
:105C20004000010705D50898411C08912E220599CE
:105C30000A5417EB080FB8BF7D422DB26842ED1928
:105C400032B20B909542B8BF2E46059B089836B2EB
:105C5000099632462146184400F02AFDAD1B0C95EA
:105C6000CCE0BBF1610F15D14FF0700B17E030B2F3
:105C7000B84204DA9DF840100A0758BF07467F1E55
:105C800048BF0027BBF1670F14BF4FF0450B4FF023
:105C9000650B04E0BBF1410F08BF4FF0500B0898B3
:105CA000411C0891002F059914F8012B0A5403DCBC
:105CB0009DF84000010719D50898411C08912E2233
:105CC00005990A54002F11DD761E30B28742B8BF05
:105CD0003E460598089B32B22146184400F0E8FC85
:105CE000089836B23018BF1B08900B970598089992
:105CF0000844B8F1000F80F800B003D42B224270A2
:105D0000821C04E02D2145464170821C6D42002119
:105D10002CAB28460AE004460A2094FBF0F000EB86
:105D20008005A4EB450403F8014B491C00B2002890
:105D3000F1DC012906DC4BF02000652804BF30208F
:105D400002F8010B00292CAB08D1302002F8010B1E
:105D500006E0491E585C303002F8010B0029F8DCDF
:105D6000059908980844121A099247E030B229B2FE
:105D700088421BDA0598089B32B22146184400F08D
:105D800097FC089936B271180891A8EB0600002F0D
:105D90000B9003DC9DF84000020705D5059A2E20E4
:105DA00050540999491C09910C9727E00598089BC4
:105DB0002AB22146184400F07BFC0898761B404428
:105DC000002F089003DC9DF840100A0704D5411C01
:105DD00008912E2205990A5430B28742B8BF3E4638
:105DE0000598089B32B204EB0801184400F060FCEF
:105DF000089836B23018BE1B08900B969DF84000EC
:105E000000F01400102840F0C280079A08980B99FF
:105E1000821809988A1882180C980F99801888425D
:105E200080F2B580081A0A90B1E09DF8420062281D
:105E300008D068280ED06A2814D06C281FD071288A
:105E400010D01CE0D9F8001051F8040BC9F800106C
:105E5000C0B21AE0D9F8001051F8040BC9F80010CC
:105E600080B212E0D9F80000C21D22F00702C9F882
:105E70000020D2E900010832C9F8002006E0D9F874
:105E8000001051F8040BC9F800100021CDE90201FF
:105E90009DF8400001075AD5DDE90223002B08BF19
:105EA000002A54D04BF02000782850D1079812A92E
:105EB00030220A54401C431C079301F800B046E00E
:105EC0009DF84200622808D068280ED06A2814D0B5
:105ED0006C281FD0712810D01CE0D9F8001051F8A0
:105EE000040BC9F8001040B21AE0D9F8001051F8BC
:105EF000040BC9F8001000B212E0D9F80000C21D6E
:105F000022F00702C9F80020D2E900010832C9F8DE
:105F1000002006E0D9F8001051F8040BC9F8001071
:105F2000C117CDE90201002902D507982D210AE009
:105F3000BDF84000810702D507982B2103E0C00778
:105F400005D50798202112AA1154401C079012A8C9
:105F5000079901440591594602A800F04DF816E052
:105F600001200790D9F8000050F8041BC9F8000080
:105F70008DF848100BE001212522BBF1000F07919D
:105F80008DF8482003D0022207928DF849B00F9D6A
:105F900007990A986D1A08992D1A0B986D1A099984
:105FA0002D1A0C986D1A9DF840102D1A48073FF5D0
:105FB000DFAA2021002D8DF800107FF7D9AA309E8E
:105FC0002C46FFF7C9BA4FF0FF3031B0BDE8F08F73
:105FD000CBCCCC0C686A6C747A4C00007072696E21
:105FE00074665F733A206261642025732061726772
:105FF000756D656E740000002DE9FC4707468A4602
:106000003C6950466F2808BF082505D0FFF78EF978
:10601000782814BF0A251025D7E900013C268046C0
:106020008946BAF1640F18BFBAF1690F05D100298A
:1060300003D5D8F1000869EB4909B9F1000F08BF91
:10604000B8F1000F0CD1386B50B9082D3AD197F840
:106050003800010736D530223B2684F83B2031E05A
:106060008DF800A0404649462A46EB1700F036FC62
:106070003032D0B2761E3A2801960EDAA25540464A
:1060800049462A46EB1700F029FC80465FEA0109E1
:1060900008BFB8F1000F05D108E09DF80000121804
:1060A000513AEBE7F868A1198842DBD3082D09D1F2
:1060B00097F83800010705D5A05D302802D0761E7C
:1060C0003020A055C6F13C03BB61A119F960386BC3
:1060D000834208DAC31A3B624FF6EF70398F0140F2
:1060E0003987BDE8F38700280ED597F8380000F00F
:1060F0001400102808D17A6B7969386A521A121A7A
:10610000D21A002AC8BF3A62BDE8F3872DE9D0430E
:1061100006460F4614464FF00008DFF8449012E0A0
:10612000E00707D542464B4630463946FEF77CFB32
:1061300006460F464046494642464B46FEF774FB2C
:10614000641080468946002CEAD130463946BDE8C5
:10615000D0830000A08601000000F03F84D7974163
:1061600000002440F8B505460E4617461C460020A0
:106170005CB117F8011BB068A847B06030B1F06A95
:10618000401CF0620020641EF3D1F2BD4FF0FF30DE
:10619000F2BD00007072696E74665F733A20256EFE
:1061A00020646973616C6C6F776564007072696EEE
:1061B00074663A2062616420256E20617267756D95
:1061C000656E7400000000006E616E004E414E006E
:1061D000696E6600494E46003000FEE710F000414F
:1061E00060B148BF4042B0FA80F29040D21CC2F584
:1061F000846241EA025202EBD02140057047FEE77B
:1062000070B5848B650606D4068906F4F8563143CA
:1062100011431943018100F005F870BD09E0808B3E
:10622000704709E004F04004601E8041C00F7047D1
:106230000000018001207047818101207047FEE746
:1062400070B491EA030F4FF0004540F1BF806B40FE
:10625000841A71EB030604D26E40001BB14112197F
:1062600073414FF4001C1CEB410F34BF7CEB430621
:1062700083E00C0DA4EB1356362E00F37C80012E28
:1062800045EAC32341DC43EA525312BFD2029202D1
:106290005B08240545EAC12141EA5051D2EBC020F8
:1062A000994125D407D1B0FA80F610FA06F162D0F0
:1062B0000020203608E0B1FA81F6B140C6F1200294
:1062C00020FA02F21143B0404FEAF474B4EB4654A2
:1062D00034F001064FEA74040AD8D6F50016760D9C
:1062E00004F00044F04061FA06F25040F1404840AA
:1062F000C00A40EA415021F0004128BF5FEA500542
:1063000050F1000044EBD12135E0DB0A45EAC12120
:10631000C90AB6F120050EDD42EA0242120CC5F1AF
:10632000200603FA06F6EB4042EA06056D42984164
:1063300061F100010DE062FA06F5F240554063FAA2
:1063400006FC82EA0C02F3405A406D42904161EB38
:10635000030111F4801F05D1641E620502D06D0097
:106360004041494121F48011430875F1004350F147
:10637000000041EB045170BC70471CEB410F15D27B
:1063800023F0004352EA43060BD04FEA4C0CBCEB1F
:10639000410F04D80C0D661E342EB7DDEBE7801AD2
:1063A000994150EA410608BF0021E4E708BF1CEB11
:1063B000430F28BF6FF00001DDE7000070B491EAE1
:1063C000030F4FF000457FF543AF6B40841A71EB2C
:1063D000030603D2001BB141121973414FF4001C94
:1063E0001CEB410F34BF7CEB430442E00C0DA4EBEB
:1063F0001356352E4FDC45EAC323DB0A45EAC1219B
:10640000C912B6F120050DDD63FA05F6EB4086EA08
:106410000305124218BF45F00105C01851F10001F3
:106420000CD213E062FA06F5F2405540F3415A40AF
:10643000B340F3405A408018594107D349085FEAF6
:1064400030005FEA350528BF45F0010501F58011F0
:10645000420875F1004250F1000041EB04514E003A
:1064600016F5001F70BC38BF70470020090D0905E4
:1064700070471CEB410F10D252EA43060BD0BCEB25
:10648000410F05D80C0DAB43661E342EB6DD02E07D
:10649000AB438018594170BC704770BC7047FEE731
:1064A000400D40F21E4C40EAC120BCEB115C40F0B4
:1064B000004003D48CF30701C84070476FEAE170D5
:1064C0007047FEE72DE9F8452A4CDFF8AC800E4610
:1064D000616801F47C51090A08BF0121256815F0A3
:1064E000030505D0022D06D00CD22468A50509D5D8
:1064F000DFF8888006E0D4F80C80214C08F01F05F6
:1065000004FB05F80096032706461C46B78515468A
:106510004F01404600213A46FB1700F0DFF9009A90
:10652000D31700F0DBF94FF4006191FBF7F2D317BA
:10653000A0F1010AA8FB020108FB031152464FEA31
:10654000EA7300F0CBF9A6F828A004F03C04009A06
:10655000D31700F0C3F9A0F5006040F4084CA6F88A
:1065600024C0002005F00305B0802543B581B08A22
:10657000BDE8F28500C304400024F40080BA8C0119
:1065800040420F0001F0C001114305E0028C0A43B4
:106590000284038C23EA01010184008C7047808A05
:1065A0007047828A930648BF018012F0200018BF0E
:1065B000012070470088FFE700F0FF0070478180EE
:1065C0000120704700897047C9B2830706D0521E68
:1065D00022D310F8013B9942F7D11FE0083A13D3B8
:1065E00002F1040241EA012141EA014150F8043B71
:1065F000121F21BF4B40A3F1013C2CEA030C1CF0FD
:10660000803FF3D0C9B2001F083210F8013B521E80
:1066100028BF91EA030FF8D818BF0120401E704729
:10662000C9B202788A421AB11CBF10F8012FF9E7EB
:1066300018BF00207047FEE780B500B906A00549E5
:106640000B681BB122220021984701E000F0C9F934
:10665000222002BD780A0020636F6E737472616934
:106660006E742068616E646C65723A2062616420A9
:106670006D6573736167650000F10103810704D0E4
:1066800010F8011B820781B1FAD10268A2F1013131
:10669000914311F0803104BF50F8042FF6E709BA96
:1066A000B1FA81F100EBD100401CC01A7047FEE73F
:1066B0004AB1000011F8013B521E00F8013B1CBF1B
:1066C00011F8013BF8E7704710B5144600F002F8E6
:1066D000226010BDC1F30A5343B14A0012F5001FF6
:1066E00028D2A3F2FE32A1EB0251704750EA410CCE
:1066F00020D001F0004C31EA0C01B1FA81F204BF64
:10670000B0FA80F3D2180B3AB2F120032CBF00FA92
:1067100003F1914041EA0C013EBFC2F1200C20FA86
:106720000CF319439040524240F2FD33D21A01EB70
:10673000035170470022704741EA030C50EA4C0CA9
:1067400052EA0C0C4FF4001C09D307D01CEB410F8C
:106750009CBF1CEB430F8B4208BF824270471CEB6F
:10676000430FFBD8994208BF9042704741EA030C9F
:1067700050EA4C0C52EA0C0C4FF4001C09D307D021
:106780001CEB410F9CBF1CEB430F994208BF90428A
:1067900070471CEB410FFBD88B4208BF8242704709
:1067A000124254D440F2FF7C1CEA11530FD06345CF
:1067B00031D09B1863453CBF01EB0251704701F09B
:1067C000004141EA0C510020AFF30080704750EACD
:1067D000410320D001F0004C91EA0C011CD0B1FA29
:1067E00081F30B3B9A420DD9D21A994051EA0C0120
:1067F000C3F1200C20FA0CFC61449840531C40F279
:10680000FF7CD7E7914041EA0C01C2F1200C20FA4D
:106810000CF3194390407047B0FA80F31533202BE6
:10682000E0D3202AEED3203A203B9A4209D9D21A4B
:1068300000FA03F141EA0C010020531C40F2FF7CF6
:10684000B8E700FA02F141EA0C0100207047524219
:1068500040F2FF7C1CEA11530DD06345DBD0B2EB54
:10686000030C3CBFA1EB025170470CF1010221EA7D
:10687000035141F4801150EA410CCCD001F0004C9E
:10688000352A27DC30B481EA0C01B2F1200309DAA1
:10689000C2F12003044601FA03F5D0402843D14059
:1068A0009C400CE0C3F12002450020FA03F418BF1D
:1068B00044F0010421FA03F091400C43002174F1EB
:1068C000004550F1000051EB0C01244230BC7FF434
:1068D0007BAF70476146002076E7FEE7D3BBD9B1B6
:1068E000B2F5803F5BD2022A1ED98C46B1FBF2F191
:1068F00002FB11C31B0443EA1043B3FBF2FC02FB8F
:106900001C3380B240EA0343B3FBF2F002FB1032C7
:1069100040EA0C4000237047022A05D98446B0FBA8
:10692000F2F002FB10C270474AB105D100F001023B
:1069300049085FEA3000704700220023704700F0EA
:1069400053B80B000200002100207047F7D300224B
:1069500000237047904271EB030CF2D370B5B1FA8B
:1069600081F4B3FA83F52C1BA340C4F1200532FA5D
:1069700005F63343A2405FF00046E64002E05B08C4
:106980005FEA3202841A71EB030524BF20462946D0
:106990007641F4D302000B003000002170BD70B5C9
:1069A000B1FA81F4B2FA82F5C4F120046419B4F1A9
:1069B0002006DAD3B2405FF00044F440002502E044
:1069C00052085FEA3303C61A71EB020E24BF304649
:1069D000714664416D41F3D302000B002000290091
:1069E00070BD012000F002B87047FEE720210903C6
:1069F00026311820ABBEF9E710B5DFF808190A698F
:106A00008B698C68D318A34206D2CB6843F8220066
:106A10000869401C086110BD6FF00300C86110BD1B
:106A200030B5DFF8E0385D69C0F38700002200E090
:106A3000521C9C69A24206D215F82240A042F7D10E
:106A40000A60002030BD6FF0060030BD30B5DFF8C1
:106A5000B4389C691A699D681419AC420FD25A69FE
:106A6000121F5A618008146860F3070414601078DC
:106A700040EA012010609869401C986130BD6FF0B9
:106A80000300D86130BD02290CD3DFF87828D0602C
:106A9000916000EB8100011F00235161136193613C
:106AA000D36113717047DFF85C2808B1D3680360C5
:106AB00009B110690860D0697047DFF8481818B14B
:106AC00000200861C86101200871704750B500249A
:106AD00000E0641C944205DA0E5DB042F9D11C70EE
:106AE000012050BD002050BD1CB50C46C1680129D5
:106AF0000AD1016802290BD0D0F804000FA100F0E0
:106B00006CF8C8B10FA016E0B1B90168022909D02C
:106B1000D0F804000DA16B46052200F060F858B1D2
:106B20000CA008E0D0F804000CA16B46032200F092
:106B300056F808B10AA054E03CE000000304050642
:106B4000080A0000120C06050403000005070809E6
:106B50000B0000000F0C0A0906000000090A0B00D8
:106B6000120F0C001CB50C46C16801290AD101683E
:106B700002290BD0D0F8040010A100F02EF8C8B103
:106B800010A016E0B1B90168022909D0D0F80400BC
:106B90000EA16B46022200F022F858B10CA008E0CA
:106BA000D0F804000BA16B46022200F018F808B1DF
:106BB00009A016E00020207016BD000003040507A0
:106BC000090B00000F0A050403020000070B000078
:106BD0000A050000090B00000F0A6B460622C0B22E
:106BE00074E79DF80010425C2270012016BD000081
:106BF000F0B587B005460C46002000902060002DBF
:106C000018BF002C00F09080E9680C2904D2AA6813
:106C1000022A01D82B69042B80F086802F6814206B
:106C2000042F1FD8DFE807F0030B1F5B33006968F0
:106C30004843FDF7E9FBE969FEF78EF80FE000BF76
:106C40003AA66B6856F822109B1C4B435B1C5843BA
:106C5000FDF7DAFBE969FEF77FF800F059FB00F079
:106C60000DFF00905EE0DFF850386A6853F82100AD
:106C7000521C4243521C009201212960694600982F
:106C800000F05CF80220286000990F3149E0297E6D
:106C900005910026A96802910DF10501E8680390AD
:106CA00002A8FFF721FF18B19DF80500461EF6B2B5
:106CB00001A902A8FFF756FF20B19DF8040086192C
:106CC000761EF6B20221296069466868301800F025
:106CD00035F80420286069688E1B6E6022E06869C0
:106CE00003281AD8DFE800F00705020E002129600A
:106CF00010E0012004E0687E002814BF0220042078
:106D0000286007E0012028605B1C696800FA03F333
:106D10004B436B60694600F012F80320286000992D
:106D2000193100910098206007B0F0BD0500000007
:106D30000400000002000000000000006860284617
:106D400056E72DE9FA4B044682B0207CD4F808803F
:106D5000D4F80490E56867690028484641464DD05C
:106D6000FDF7B8FB20D27F1CAF4208BF002740468A
:106D700000F09FF8FDF756FB01F004F880460E4640
:106D800000F088F842463346FDF74EFD00F085F8E6
:106D900002460B4640463146FDF71CFE00F082F8E5
:106DA00005460E46484622E07F1E6E1EAF4228BFB3
:106DB0003746FDF733FFFDF735FB00F0E3FF0546EF
:106DC0008B4600F067F8CDE900013046FDF77EFC08
:106DD00002460B4628465946FDF7FCFDDDE9002337
:106DE000FDF722FD00F05EF805460E464046FDF731
:106DF00019FB2A463346FDF717FD42E0FDF76AFB13
:106E00001AD27F1CAF4208BF0027FDF70BFB00F032
:106E10003FF806468B4640464946FDF70FFCFDF716
:106E200001FB32465B46FDF7FFFC00F036F80246F8
:106E30000B46404631461EE07F1E6E1EAF4228BF05
:106E400037464046FDF7EEFA00F022F805468B463D
:106E500048464146FDF7F2FBFDF7E4FA2A465B4659
:106E6000FDF7E2FC05468B463046FDF72FFC024657
:106E70000B4628465946FDF7ADFDDDE90023FFF737
:106E8000DFF9FDF7F3FA029908606761BDE8FF8B4F
:106E9000CDE900013846FDF719BC80460E46681E54
:106EA000FDF714BC02460B460020DFF8101600F078
:106EB0006BBF4946FDF7B2BEDFF804160918A0F50E
:106EC000805042F21502904201D20868704708884B
:106ED000704704E0DFF8EC25136840F8043B0A46ED
:106EE000511E002AF6D17047F8B5DFF818540C4649
:106EF00029790129074622D1B7F5085F03DB6FF036
:106F00000400E861F1BD810824F07F4646EA01668D
:106F10006946FFF785FD46F0004640B9686900996B
:106F200000EB8100027842EA0422026003E021467D
:106F30003846FFF78BFD3046FFF75EFDF1BDDFF809
:106F40008015CA19A0F5805042F21503984201D26B
:106F50001460F1BD1480F1BD38B5DFF86C552A79A5
:106F6000012A044613D16946FFF75AFD40B1204675
:106F7000FFF7A2FF054629462046FFF767FD04E01C
:106F80006869009950F821502D0A284632BDFFF754
:106F900093FF32BD70B5DFF86C43DFF83065002039
:106FA0002061A061E0612071002506EBC500416809
:106FB00036F83500FFF798FF6D1C0E2DF5D340F223
:106FC0000440FFF7C9FF45F2015188421ABF45F25C
:106FD00002529042012003D0B0F5AA4F01D1002007
:106FE000207070BD38B504460D464FF40050FFF7D1
:106FF000B3FF012D24F020010CD1A20644BF20F0E4
:1070000020000C46210344BF20F4002024F4002477
:1070100004430CE0A20644BF40F020000C462103CC
:1070200044BF40F4002024F4002420EA0404214654
:10703000BDE834403DE240EA810142F2F02053E7EE
:1070400010B500F02FFA20F02001207808B941F0A7
:1070500020014FF40050FFF747FF4FF40650FFF7B1
:107060007BFF6178012908BF40F00100A178012968
:1070700008BF40F01000E178012908BF40F004008B
:107080002179012908BF40F02000617A012908BF59
:1070900040F48070A17A012908BF40F00200E17A33
:1070A000012908BF40F00800217B012908BF40F0FA
:1070B000400001464FF40650FFF716FFA07900216B
:1070C00000B90221607908B941F00101E079012895
:1070D00008BF41F00401BDE8104042F2500003E750
:1070E00010B5044604F1100000F029F804F1500036
:1070F00000F05AF8204600F005F804F11C00BDE845
:1071000010407EE010B5044642F250102168FFF7AF
:10711000EBFE616842F25810FFF7E6FEA16842F20A
:107120005410FFF7E1FEE16842F25C10FFF7DCFE6D
:10713000BDE810404FF4803142F20C00D4E6026802
:107140000021012A08BF4FF480514268012A08BF7C
:1071500041F001018268520002F4FF72114342F2D1
:107160001000C1E6000000000B290CD2032928BF43
:10717000083106D2052A06D207A301EB8101194482
:10718000895CC90000E0F8211143002814BF42F2D5
:10719000F40042F2F800A7E600010203060304052A
:1071A0000607070709090A0010B5040000D100E22C
:1071B0002069032804D30C283CBF6069062802D349
:1071C0006FF0010010BD216842F2FC00FFF78CFE59
:1071D000A068616841EA4011207B012808BF41F0A6
:1071E000100142F2F000FFF77FFE62692169002082
:1071F000FFF7BAFFE269A1690120FFF7B5FF0020A0
:1072000010BD10B504462068022812D1216A42F24E
:107210003000FFF769FE616A42F23C00FFF764FE4E
:10722000A16A42F23800FFF75FFEE16A42F23400E1
:1072300021E003281CD1A16842F21800FFF754FE98
:10724000E16842F21C00FFF74FFE216942F2200084
:10725000FFF74AFE616942F22800FFF745FEA16987
:1072600042F22400FFF740FEE16942F22C0002E006
:10727000216B42F24800FFF737FE207900210128F8
:1072800008BF20216079012808BF41F01001206863
:10729000BDE8104041EA400142F2140024E680B506
:1072A00000F006F8BDE80440014642F230001BE65B
:1072B00070B5044613480D4601781A26012908BF07
:1072C0001E26284600F0D0FB01D1002070BD012011
:1072D000324601F09FF801F0AFF800F016F82946A9
:1072E000FDF79CFC00F014F800F0C8FB01461A2ED4
:1072F0000CBFDFF868076FF07F40884288BF084600
:1073000070BD0000380A002020462146FDF724BD4C
:107310004FF07C51FDF722B910B5044600F005F896
:1073200004F12000BDE8104047E010B50446A16814
:1073300060686269090141EA8011E06841EAC001C0
:10734000207E41EA820108B941F00101607E08B95E
:1073500041F00201206870B942F22810FFF7C4FD25
:10736000A18B608BC9B200F015F8216941F02001B2
:1073700042F224100DE042F23410FFF7B5FDA18B6C
:10738000608BC9B200F010F8216941F0200142F28F
:1073900030103DE000BF01F03F01C0F30B0040EAB8
:1073A000013142F220109FE501F03F01C0F30B00D4
:1073B00040EA013142F22C1096E510B50446002156
:1073C000207E00B90221607E08B941F001012069E8
:1073D00004280CBF41F0040141EAC001E068A26842
:1073E000636841EA401141EA8221206841EA433161
:1073F00038B942F2EC00FFF777FD616942F2E40030
:1074000006E042F2E800FFF76FFD616942F2E0003A
:10741000BDE8104068E510B5044600F011F804F12D
:107420000C0000F017F804F1200000F051F804F10E
:10743000280000F072F804F13400BDE810405EE06E
:1074400001684268836841EA022141EA034142F24D
:10745000A81049E538B5044642F2440500F0F2F8B8
:1074600000F08001E068227C0143012A08BF41F05E
:107470001001607C012808BF41F04001606822686B
:1074800041EA0021A06841EA023141EA803100F07E
:10749000DEF8A07C28B1BDE8344001214FF48030F3
:1074A000A0E531BD04464FF4005055E5BDE810405D
:1074B00001464FF4005017E5F8A3000000002440F7
:1074C00000000C406C200C40380A0020BCA10000D9
:1074D00010B5044642F2A8002188FFF705FD618837
:1074E00042F2AC00FFF700FDA18842F2B000FFF7C6
:1074F000FBFCE188BDE8104042F2B400F4E4027AFB
:107500000021012A08BF01214268036841EA0211F3
:1075100041EAC31142F2C410E6E470B5044642F2F7
:10752000440600F044F8014660680025032804D1B1
:1075300041F0800100F043FA05E021F0800100F005
:107540003EFA65682D052068217A45EA0015012973
:1075500008BF45F001052946BDE8704042F2D00061
:10756000C2E470B5044642F20805002100F06FF84D
:1075700042F2D81600F01BF800F03F016068A268E4
:1075800041EA402141EA821100F019FA2169090417
:1075900042F2E010FFF7A8FC20780021012808BF84
:1075A0004FF40061E06841EA403128461CE2304671
:1075B000D2E46FF0020010BD0022012908BF4FF491
:1075C000006242EA403142F20800FFF78DBC80B50C
:1075D0004FF40850FFF7C0FC000C02BDF8B504469C
:1075E00042F2080500F02EF80646002100F02FF8C0
:1075F00042F2D8173846FFF7AFFC8109206840EA0D
:10760000811141F008013846FFF76EFCE07942F243
:10761000040730B100F024FA002142F26400FFF7C1
